:020000040800F2
:10000000005000200D0A0008750900087D0900084D
:10001000850900088D090008950900080000000006
:1000200000000000000000000000000091700008C7
:100030009D0900080000000071720008A90900086D
:10004000550A0008550A0008550A0008550A000814
:10005000550A0008550A0008550A0008550A000804
:10006000550A0008550A0008550A0008550A0008F4
:10007000550A0008550A0008C5090008550A000875
:10008000550A0008550A0008550A0008550A0008D4
:10009000550A0008550A0008550A0008550A0008C4
:1000A000550A0008550A0008550A0008550A0008B4
:1000B000550A0008550A0008550A0008D909000821
:1000C000550A0008ED090008550A0008550A0008FD
:1000D000550A0008550A0008550A0008550A000884
:1000E000550A0008550A0008550A000800000000DB
:1000F0000000000000000000000000000000000000
:0C01000000000000000000005FF808F1A3
:1001100010B5054C237833B9044B13B10448AFF341
:1001200000800123237010BD10000020000000009B
:100130000C78000808B5034B1BB103490348AFF323
:10014000008008BD00000000140000200C780008AA
:1001500080B500AF00F080FC00F06CF800F04AF9C8
:1001600000F02AF900F0A2F800F0CEF800F0FAF85A
:1001700004F010FC1D4A0121012004F000FD03469B
:100180001B4A13601B4A0021022004F0F8FC0346BE
:10019000194A1360194A0221102004F079FD034620
:1001A000174A1360174A0021174804F03BFC034626
:1001B000164A1360164A0021164804F033FC034621
:1001C000154A1360154A0021154804F02BFC03461C
:1001D000144A1360144A0021144804F023FC034617
:1001E000134A136004F0F8FB00BFFDE754790008E0
:1001F0007401002064790008780100203C7900082F
:1002000070010020AC780008A504000860010020FF
:10021000D0780008B504000864010020F4780008D4
:1002200049050008680100201879000859050008F0
:100230006C01002080B590B000AF07F118032822B0
:100240000021184607F0A8FA3B1D00221A605A60E8
:100250009A60DA601A610223BB610123BB6210233A
:10026000FB6200237B6307F11803184603F02AFDA5
:100270000346002B01D000F077F90F237B600023A9
:10028000BB600023FB6000233B6100237B613B1DBF
:100290000021184603F098FF0346002B01D000F020
:1002A00063F900BF4037BD4680BD000080B500AF98
:1002B000124B134A1A60114B124A5A600F4B00221C
:1002C0009A600E4B0022DA600C4B4FF480421A61A8
:1002D0000A4B00225A61094B00229A61074B002207
:1002E000DA61064B00221A62044801F0CBF803469B
:1002F000002B01D000F038F900BF80BD2C00002099
:1003000000540040A086010080B500AF124B134A94
:100310001A60114B124A5A600F4B00229A600E4B22
:100320000022DA600C4B4FF480421A610A4B002223
:100330005A61094B00229A61074B0022DA61064B91
:1003400000221A62044801F09DF80346002B01D0F8
:1003500000F00AF900BF80BD800000200058004076
:10036000A086010080B500AF114B124A1A60104BF5
:100370004FF4E1325A600E4B00229A600C4B00227F
:10038000DA600B4B00221A61094B0C225A61084BB0
:1003900000229A61064B0022DA61054804F0A2F8B7
:1003A0000346002B01D000F0DFF800BF80BD00BF86
:1003B000D40000200038014080B582B000AF0C4B63
:1003C0005B690B4A43F001035361094B5B6903F01E
:1003D00001037B607B68002205210E2000F099FC60
:1003E0000E2000F0B2FC00BF0837BD4680BD00BF44
:1003F0000010024080B588B000AF07F11003002262
:100400001A605A609A60DA60244B9B69234A43F071
:1004100010039361214B9B6903F01003FB60FB68A1
:100420001E4B9B691D4A43F0200393611B4B9B6944
:1004300003F02003BB60BB68184B9B69174A43F06D
:1004400008039361154B9B6903F008037B607B688D
:10045000124B9B69114A43F0040393610F4B9B6954
:1004600003F004033B603B6800224FF400510C484A
:1004700000F0F0FF4FF400533B6101237B61002348
:10048000BB610223FB6107F110031946044800F029
:100490005DFE00BF2037BD4680BD00BF001002409A
:1004A0000010014080B582B000AF7860012004F0F8
:1004B0004BFBFBE780B584B000AF7860702000F0A4
:1004C00059F81F4B5B7AFF2B0AD0FF2B21DC012B45
:1004D00002D0022B17D01CE0702000F079F82BE03E
:1004E0000023FB7309E0702000F072F8144B5B7A74
:1004F000022B06D0FB7B0133FB73FB7B042BF2D971
:100500001AE000BF18E00F4A0D49702000F0C6F84D
:1005100012E00023BB7309E0702000F02BF8084BB9
:100520005B7A012B06D0BB7B0133BB73BB7B042BF7
:10053000F2D900E000BF00BF142004F005FBC0E7C3
:100540007C0100208001002080B582B000AF78607F
:10055000012004F0F9FAFBE780B582B000AF7860C3
:10056000012004F0F1FAFBE780B400AF72B600BFDF
:1005700000BFFDE780B586B002AF0346FB71712373
:10058000FB73642000F0CAFAFB7999B207F10F02FD
:100590006423009301230B4801F0CCF8FB7999B256
:1005A000642300930123084A064801F0C1F9074B70
:1005B0001B7A182B02D1054B01225A7200BF10374B
:1005C000BD4680BD2C000020840100207C0100205D
:1005D00080B586B002AF0346FB710A2000F09EFA98
:1005E000274A07F10C031268114619800233120CD6
:1005F0001A70FB7999B207F10C026423009303236C
:10060000204801F097F8502000F088FAFB7999B261
:100610006423009301231C4A1A4801F089F900233E
:10062000FB731BE0642306221849194803F0AAFF54
:10063000FB7999B2642300930123134A114801F016
:1006400077F9502000F06AFAFB7B0133FB73FB7BE8
:10065000042B03D90F4BFF225A720DE00D4B1B7A6E
:100660005BB2002BDEDB642306220B49084803F053
:1006700089FF084B02225A721037BD4680BD00BF69
:10068000907800082C000020840100208078000869
:10069000D40000207C0100208878000880B588B054
:1006A00002AF0346B9607A60FB73FB7B43F0010342
:1006B000DBB2194607F110026423009306231648A3
:1006C00001F036F97B7C1A03BB7C1B011343FA7CD7
:1006D0001209D2B213431A46BB681A60FB7C1B0393
:1006E0009AB23B7D1B0113437A7D13431A467B6804
:1006F0001A60BB681B68002B03D07B681B68002B4B
:1007000003D1064BF0225A7202E0044B03225A72C4
:100710001837BD4680BD00BF2C0000207C010020A2
:1007200080B584B000AF184B9B69174A43F00103B2
:100730009361154B9B6903F00103BB60BB68124BCF
:10074000DB69114A43F08053D3610F4BDB6903F03F
:1007500080537B607B6800220F216FF0010000F066
:10076000D8FA0A4B5B68FB60FB6823F0E063FB6030
:10077000FB6843F00073FB60044AFB68536000BFF2
:100780001037BD4680BD00BF001002400000014090
:1007900080B58AB000AF786007F1180300221A60B4
:1007A0005A609A60DA607B681B68334A93422CD1A6
:1007B000324B9B69314A43F0080393612F4B9B698D
:1007C00003F008037B617B69C023BB611223FB61DB
:1007D00003237B6207F118031946294800F0B6FC91
:1007E000264BDB69254A43F40013D361234BDB69B5
:1007F00003F400133B613B69002205211F2000F038
:1008000088FA1F2000F0A1FA31E07B681B681D4ABE
:1008100093422CD1194B9B69184A43F0080393610A
:10082000164B9B6903F00803FB60FB684FF44063C1
:10083000BB611223FB6103237B6207F11803194696
:100840000F4800F083FC0D4BDB690C4A43F4800336
:10085000D3610A4BDB6903F48003BB60BB680022F1
:100860000521212000F055FA212000F06EFA00BF8A
:100870002837BD4680BD00BF005400400010024034
:10088000000C01400058004080B588B000AF78608F
:1008900007F1100300221A605A609A60DA607B68E0
:1008A0001B682F4A934257D12E4B9B692D4A43F424
:1008B000804393612B4B9B6903F48043FB60FB688F
:1008C000284B9B69274A43F004039361254B9B699E
:1008D00003F00403BB60BB684FF400733B61022369
:1008E0007B610323FB6107F1100319461E4800F0EA
:1008F0002DFC4FF480633B6100237B610023BB61CF
:1009000007F110031946184800F020FC174B184A4D
:100910001A60164B10225A60144B00229A60134B37
:100920008022DA60114B00221A61104B00225A61BA
:100930000E4B00229A610D4B0022DA610B4800F049
:100940001FFA0346002B01D0FFF70EFE7B68074A13
:100950009A63064A7B68536200BF2037BD4680BD5C
:100960000038014000100240000801401C01002036
:100970004400024080B400AF00BFFDE780B400AF88
:1009800000BFFDE780B400AF00BFFDE780B400AF5B
:1009900000BFFDE780B400AF00BFFDE780B400AF4B
:1009A00000BFBD4680BC704780B500AF00F09AF82C
:1009B00005F0DCFE0346012B01D006F07DFC00BFF4
:1009C00080BD000080B500AF024800F0ABFA00BF68
:1009D00080BD00BF1C01002080B500AF024801F0BF
:1009E00013FA00BF80BD00BF2C00002080B500AF0F
:1009F000024801F009FA00BF80BD00BF800000205E
:100A000080B400AF00BFBD4680BC7047FFF7F8FF61
:100A10000B480C490C4A002302E0D458C45004335C
:100A2000C4188C42F9D3094A094C002301E0136031
:100A30000432A242FBD306F0B7FEFFF789FB7047F2
:100A40000000002010000020A879000810000020FD
:100A5000DC1A0020FEE7000080B500AF084B1B68E1
:100A6000074A43F010031360032000F047F90F20FA
:100A700000F008F8FFF754FE0023184680BD00BFC1
:100A80000020024080B582B000AF7860124B1A6837
:100A9000124B1B7819464FF47A73B3FBF1F3B2FB98
:100AA000F3F3184600F05FF90346002B01D0012351
:100AB0000EE07B680F2B0AD8002279684FF0FF30D8
:100AC00000F027F9064A7B681360002300E0012349
:100AD00018460837BD4680BD0000002008000020F1
:100AE0000400002080B400AF054B1B781A46054B6C
:100AF0001B681344034A136000BFBD4680BC7047A7
:100B0000080000208801002080B400AF024B1B6861
:100B10001846BD4680BC70478801002080B584B06F
:100B200000AF7860FFF7F0FFB8607B68FB60FB68A0
:100B3000B3F1FF3F05D00A4B1B781A46FB681344FC
:100B4000FB6000BFFFF7E0FF0246BB68D31AFA68FC
:100B50009A42F7D800BF00BF1037BD4680BD00BF26
:100B60000800002080B485B000AF78607B6803F097
:100B70000703FB600C4BDB68BB60BA684FF6FF03F2
:100B80001340BB60FB681A02BB68134343F0BF63AA
:100B900043F40033BB60044ABB68D36000BF143722
:100BA000BD4680BC704700BF00ED00E080B400AFE0
:100BB000044BDB681B0A03F007031846BD4680BCE4
:100BC000704700BF00ED00E080B483B000AF034683
:100BD000FB7197F90730002B0BDBFB7903F01F0249
:100BE000064997F907305B09012000FA02F241F843
:100BF000232000BF0C37BD4680BC704700E100E0F9
:100C000080B483B000AF03463960FB7197F90730B9
:100C1000002B0ADB3B68DAB20C4997F90730120166
:100C2000D2B20B4483F800230AE03B68DAB20849E9
:100C3000FB7903F00F03043B1201D2B20B441A7686
:100C400000BF0C37BD4680BC704700BF00E100E02C
:100C500000ED00E080B489B000AFF860B9607A6060
:100C6000FB6803F00703FB61FB69C3F10703042B77
:100C700028BF0423BB61FB690433062B02D9FB693F
:100C8000033B00E000237B614FF0FF32BB6902FAB7
:100C900003F3DA43BB681A407B699A404FF0FF3197
:100CA0007B6901FA03F3D9437B680B401343184671
:100CB0002437BD4680BC704780B582B000AF7860F5
:100CC0007B68013BB3F1807F01D301230FE00A4A27
:100CD0007B68013B53600F214FF0FF30FFF790FF1F
:100CE000054B00229A60044B07221A600023184625
:100CF0000837BD4680BD00BF10E000E080B582B07F
:100D000000AF78607868FFF72DFF00BF0837BD4659
:100D100080BD80B586B000AF0346B9607A60FB73D2
:100D200000237B61FFF742FF78617A68B9687869D0
:100D3000FFF790FF024697F90F3011461846FFF76C
:100D40005FFF00BF1837BD4680BD80B582B000AFE1
:100D50000346FB7197F907301846FFF735FF00BFD0
:100D60000837BD4680BD80B582B000AF7860786836
:100D7000FFF7A2FF034618460837BD4680BD0000B6
:100D800080B485B000AF78600023FB607B68002BE7
:100D900001D1012343E07B681B681A46224B1344B0
:100DA000224AA2FB03231B099A007B681A647B6812
:100DB0001F4ADA637B68022283F821207B681B6864
:100DC0001B68FB60FB6823F47F5323F03003FB6058
:100DD0007B685A687B689B681A437B68DB681A43A8
:100DE0007B681B691A437B685B691A437B689B6954
:100DF0001A437B68DB691343FA681343FB607B6823
:100E00001B68FA681A607B6800229A637B6801227B
:100E100083F821207B68002283F8202000231846D5
:100E20001437BD4680BC7047F8FFFDBFCDCCCCCC9D
:100E30000000024080B584B000AF78600023FB73EF
:100E40007B6893F82130DBB2022B05D07B6804224B
:100E50009A630123FB7351E07B681B681A687B6807
:100E60001B6822F00E021A607B681B681A687B6898
:100E70001B6822F001021A607B681B68224A9342B9
:100E800029D07B681B68214A934222D07B681B686B
:100E90001F4A93421AD07B681B681E4A934212D0A5
:100EA0007B681B681C4A93420AD07B681B681B4AFC
:100EB000934202D14FF480130EE04FF080730BE0A9
:100EC0004FF4803308E04FF4805305E04FF4807313
:100ED00002E0102300E00123114A53607B680122E5
:100EE00083F821207B68002283F820207B685B6BDD
:100EF000002B03D07B685B6B78689847FB7B1846B8
:100F00001037BD4680BD00BF080002401C000240F3
:100F10003000024044000240580002406C00024091
:100F20000000024080B584B000AF78607B68DB6B66
:100F30001B68FB607B681B681B68BB607B681B6C65
:100F400004229A40FB681340002B4FD0BB6803F08B
:100F50000403002B4AD07B681B681B6803F0200346
:100F6000002B07D17B681B681A687B681B6822F01E
:100F700004021A607B681B68664A934229D07B682A
:100F80001B68654A934222D07B681B68634A934280
:100F90001AD07B681B68624A934212D07B681B6838
:100FA000604A93420AD07B681B685F4A934202D131
:100FB0004FF480030EE04FF080630BE04FF480238A
:100FC00008E04FF4804305E04FF4806302E04023E3
:100FD00000E00423554A53607B68DB6A002B00F075
:100FE00094807B68DB6A786898478EE07B681B6C2E
:100FF00002229A40FB681340002B56D0BB6803F0D6
:101000000203002B51D07B681B681B6803F0200390
:10101000002B0BD17B681B681A687B681B6822F069
:101020000A021A607B68012283F821207B681B6812
:10103000384A934229D07B681B68374A934222D0B2
:101040007B681B68354A93421AD07B681B68344A18
:10105000934212D07B681B68324A93420AD07B6865
:101060001B68314A934202D14FF400130EE04FF057
:1010700000730BE04FF4003308E04FF4005305E039
:101080004FF4007302E0202300E00223274A53605C
:101090007B68002283F820207B689B6A002B34D079
:1010A0007B689B6A786898472FE07B681B6C0822F6
:1010B0009A40FB681340002B28D0BB6803F008035C
:1010C000002B23D07B681B681A687B681B6822F0A2
:1010D0000E021A607B681A6C7B68DB6B012101FAD7
:1010E00002F25A607B6801229A637B68012283F8CE
:1010F00021207B68002283F820207B681B6B002B5B
:1011000004D07B681B6B7868984700BF00BF10371E
:10111000BD4680BD080002401C0002403000024075
:1011200044000240580002406C00024000000240AF
:1011300080B483B000AF78607B6893F82130DBB275
:1011400018460C37BD4680BC7047000080B48BB099
:1011500000AF7860396000237B6200233B6269E165
:1011600001227B6A02FA03F3FB613B681B68FA69A0
:101170001340BB61BA69FB699A4240F058813B68F1
:101180005B689A4A93425ED0984A934275D8984ACF
:10119000934258D0964A93426FD8964A934252D07F
:1011A000944A934269D8944A93424CD0924A9342CB
:1011B00063D8924A934246D0904A93425DD8122B0C
:1011C0002AD8122B59D801A252F823F0471200084E
:1011D0002112000833120008751200087B12000863
:1011E0007B1200087B1200087B1200087B120008AB
:1011F0007B1200087B1200087B1200087B1200089B
:101200007B1200087B1200087B1200087B1200088A
:10121000291200083D120008794A934213D02CE0AD
:101220003B68DB683B6229E03B68DB6804333B6278
:1012300024E03B68DB6808333B621FE03B68DB6807
:101240000C333B621AE03B689B68002B02D10423FD
:101250003B6213E03B689B68012B05D108233B628E
:101260007B68FA691A6109E008233B627B68FA69C6
:101270005A6103E000233B6200E000BFBB69FF2B23
:1012800001D87B6801E07B6804337B61BB69FF2B7D
:1012900002D87B6A9B0002E07B6A083B9B003B61B3
:1012A0007B691A680F213B6901FA03F3DB431A409B
:1012B000396A3B6901FA03F31A437B691A603B6898
:1012C0005B6803F08053002B00F0B1804D4B9B69AD
:1012D0004C4A43F0010393614A4B9B6903F00103BD
:1012E000BB60BB68484A7B6A9B08023352F82330D4
:1012F000FB607B6A03F003039B000F2202FA03F3F7
:10130000DB43FA681340FB607B68404A934213D08A
:101310007B683F4A93420DD07B683E4A934207D098
:101320007B683D4A934201D1032306E0042304E095
:10133000022302E0012300E000237A6A02F00302A4
:1013400092009340FA681343FB602F497B6A9B0825
:101350000233FA6841F823203B685B6803F480138A
:10136000002B06D02D4B9A682C49BB6913438B6028
:1013700006E02A4B9A68BB69DB43284913408B601F
:101380003B685B6803F40013002B06D0234BDA683C
:101390002249BB691343CB6006E0204BDA68BB6986
:1013A000DB431E491340CB603B685B6803F40033AA
:1013B000002B06D0194B5A681849BB6913434B6080
:1013C00006E0164B5A68BB69DB43144913404B6077
:1013D0003B685B6803F48033002B21D00F4B1A6805
:1013E0000E49BB6913430B6021E000BF00003210BF
:1013F0000000311000002210000021100000121027
:1014000000001110001002400000014000080140DF
:10141000000C014000100140001401400004014094
:101420000B4B1A68BB69DB43094913400B607B6AAD
:1014300001337B623B681A687B6A22FA03F3002B54
:101440007FF48EAE00BF00BF2C37BD4680BC704716
:101450000004014080B483B000AF78600B467B800D
:1014600013467B707B78002B03D07A887B681A61E7
:1014700003E07B881A047B681A6100BF0C37BD4605
:1014800080BC704780B584B000AF78607B68002B6B
:1014900001D101232BE17B6893F83D30DBB2002BB7
:1014A00006D17B68002283F83C207868FFF770F94A
:1014B0007B68242283F83D207B681B681A687B6860
:1014C0001B6822F001021A607B681B681A687B683F
:1014D0001B6842F400421A607B681B681A687B68CC
:1014E0001B6822F400421A6002F0B6FFF8607B68C5
:1014F0005B68814A934207D8FB68804A934294BF55
:1015000001230023DBB206E0FB687D4A934294BFCF
:1015100001230023DBB2002B01D00123E7E0FB68AD
:10152000784AA2FB03239B0CBB607B681B685B684B
:1015300023F03F017B681B68BA680A435A607B68E6
:101540001B681B6A23F03F017B685B686A4A934211
:1015500002D8BB68013309E0BB684FF4967202FB06
:1015600003F3694AA2FB03239B0901337A681268DB
:101570000B4313627B681B68DB6923F44F4222F044
:10158000FF027B685B685C498B4219D8FB68591E77
:101590007B685B685B00B1FBF3F3591C40F6FC739E
:1015A0000B40002B0AD0FB68591E7B685B685B0010
:1015B000B1FBF3F30133C3F30B0351E004234FE01A
:1015C0007B689B68002B11D1FB68581E7B685968AB
:1015D0000B465B000B44B0FBF3F30133C3F30B0387
:1015E000002B0CBF01230023DBB212E0FB68581E66
:1015F0007B6859680B469B000B4499000B44B0FB79
:10160000F3F30133C3F30B03002B0CBF01230023BF
:10161000DBB2002B01D0012322E07B689B68002B0A
:101620000ED1FB68581E7B6859680B465B000B4463
:10163000B0FBF3F30133C3F30B0343F400430FE0B8
:10164000FB68581E7B6859680B469B000B44990049
:101650000B44B0FBF3F30133C3F30B0343F44043F8
:10166000796809681343CB617B681B681B6823F0AA
:10167000C0017B68DA697B681B6A1A437B681B6858
:101680000A431A607B681B689B6823F4034323F0BA
:10169000FF037A6811697A68D26811437A68126820
:1016A0000B4393607B681B68DB6823F0FF017B685A
:1016B0005A697B689B691A437B681B680A43DA6036
:1016C0007B681B681A687B681B6842F001021A601D
:1016D0007B6800221A647B68202283F83D207B68A7
:1016E00000221A637B68002283F83E2000231846FC
:1016F0001037BD4680BD00BFA08601007F841E005C
:10170000FF083D0083DE1B43D34D621080B483B0DD
:1017100000AF78607B681B685B6903F08003802BF7
:1017200003D17B681B6800221A6100BF0C37BD46DD
:1017300080BC704780B588B002AFF8607A601A4606
:101740000B467B8113463B81FFF7DEF97861FB682E
:1017500093F83D30DBB2202B40F0E0807B690093B2
:10176000192301227049F86802F02AF80346002B79
:1017700001D00223D3E0FB6893F83C30012B01D168
:101780000223CCE0FB68012283F83C20FB681B6845
:101790001B6803F00103012B07D0FB681B681A6864
:1017A000FB681B6842F001021A60FB681B681A683C
:1017B000FB681B6822F400621A60FB68212283F830
:1017C0003D20FB68102283F83E20FB6800221A644B
:1017D000FB687A685A62FB683A895A85FB685B8DB8
:1017E0009AB2FB681A85FB68504ADA6279897B698C
:1017F0003A6AF86801F0ECFD0346002B01D00123A2
:101800008DE000233B61FB681B685B693B61FB6803
:101810001B689B693B613B6966E07A69396AF868D5
:1018200002F0E8F80346002B0DD0FB681B6C042B7C
:1018300007D1FB681B681A68FB681B6842F40072DA
:101840001A6001236BE0FB685B6A1A78FB681B680F
:101850001A61FB685B6A5A1CFB685A62FB685B8D05
:101860009BB2013B9AB2FB685A85FB681B8D013B1A
:101870009AB2FB681A85FB681B685B6903F0040376
:10188000042B1BD1FB681B8D002B17D0FB685B6AF8
:101890001A78FB681B681A61FB685B6A5A1CFB6854
:1018A0005A62FB685B8D9BB2013B9AB2FB685A851A
:1018B000FB681B8D013B9AB2FB681A857A69396A0D
:1018C000F86802F0DFF80346002B0DD0FB681B6CB4
:1018D000042B07D1FB681B681A68FB681B6842F47D
:1018E00000721A6001231AE0FB681B8D002B94D153
:1018F000FB681B681A68FB681B6842F400721A6078
:10190000FB68202283F83D20FB68002283F83E20FC
:10191000FB68002283F83C20002300E002231846E5
:101920001837BD4680BD00BF020010000000FFFF59
:1019300080B58CB002AFF8607A601A460B467B81A6
:1019400013463B8100233B62FFF7DEF87862FB68B9
:1019500093F83D30DBB2202B40F04B827B6A009342
:10196000192301227F49F86801F02AFF0346002B62
:1019700001D002233EE2FB6893F83C30012B01D1F9
:10198000022337E2FB68012283F83C20FB681B68D6
:101990001B6803F00103012B07D0FB681B681A6862
:1019A000FB681B6842F001021A60FB681B681A683A
:1019B000FB681B6822F400621A60FB68222283F82D
:1019C0003D20FB68102283F83E20FB6800221A6449
:1019D000FB687A685A62FB683A895A85FB685B8DB6
:1019E0009AB2FB681A85FB685F4ADA6279897B6A7A
:1019F0003A6BF86801F06EFD0346002B01D001231D
:101A0000F8E1FB681B8D002B13D10023FB61FB6801
:101A10001B685B69FB61FB681B689B69FB61FB6979
:101A2000FB681B681A68FB681B6842F400721A6046
:101A3000CCE1FB681B8D012B1ED1FB681B681A686B
:101A4000FB681B6822F480621A6072B600BF002334
:101A5000BB61FB681B685B69BB61FB681B689B69BA
:101A6000BB61BB69FB681B681A68FB681B6842F4B2
:101A700000721A6062B635E0FB681B8D022B1ED126
:101A8000FB681B681A68FB681B6842F400621A60F6
:101A900072B600BF00237B61FB681B685B697B61DA
:101AA000FB681B689B697B617B69FB681B681A6824
:101AB000FB681B6822F480621A6062B612E0FB6861
:101AC0001B681A68FB681B6842F480621A60002376
:101AD0003B61FB681B685B693B61FB681B689B693A
:101AE0003B613B6972E1FB681B8D032B00F21F8198
:101AF000FB681B8D012B23D17A6A396BF86802F0E1
:101B00003BF80346002B01D0012373E1FB681B68FF
:101B10001A69FB685B6AD2B21A70FB685B6A5A1C6E
:101B2000FB685A62FB681B8D013B9AB2FB681A8501
:101B3000FB685B8D9BB2013B9AB2FB685A8545E11D
:101B4000FB681B8D022B52D17B6A00933B6B0022FA
:101B50000649F86801F034FE0346002B08D0012343
:101B600048E100BF020010000000FFFF0400010078
:101B700072B600BFFB681B681A68FB681B6842F4FA
:101B800000721A60FB681B681A69FB685B6AD2B254
:101B90001A70FB685B6A5A1CFB685A62FB681B8DF3
:101BA000013B9AB2FB681A85FB685B8D9BB2013BD7
:101BB0009AB2FB685A8562B600BFFB681B681A6957
:101BC000FB685B6AD2B21A70FB685B6A5A1CFB68DE
:101BD0005A62FB681B8D013B9AB2FB681A85FB6851
:101BE0005B8D9BB2013B9AB2FB685A85EEE07B6A43
:101BF00000933B6B00228149F86801F0E1FD034648
:101C0000002B01D00123F5E0FB681B681A68FB6814
:101C10001B6822F480621A6072B600BFFB681B6802
:101C20001A69FB685B6AD2B21A70FB685B6A5A1C5D
:101C3000FB685A62FB681B8D013B9AB2FB681A85F0
:101C4000FB685B8D9BB2013B9AB2FB685A856C4B7B
:101C50001B68DB086B4AA2FB03231A0A13469B008E
:101C60001344DA00D31A3B623B6A013B3B623B6A96
:101C7000002B18D1FB6800221A63FB68202283F82E
:101C80003D20FB68002283F83E20FB681B6C43F07C
:101C90002002FB681A6462B600BFFB68002283F86A
:101CA0003C200123A6E0FB681B685B6903F004038A
:101CB000042BD9D1FB681B681A68FB681B6842F4C7
:101CC00000721A60FB681B681A69FB685B6AD2B213
:101CD0001A70FB685B6A5A1CFB685A62FB681B8DB2
:101CE000013B9AB2FB681A85FB685B8D9BB2013B96
:101CF0009AB2FB685A8562B600BFFB681B681A6916
:101D0000FB685B6AD2B21A70FB685B6A5A1CFB689C
:101D10005A62FB681B8D013B9AB2FB681A85FB680F
:101D20005B8D9BB2013B9AB2FB685A854EE07A6AA2
:101D3000396BF86801F020FF0346002B01D0012326
:101D400058E0FB681B681A69FB685B6AD2B21A70BC
:101D5000FB685B6A5A1CFB685A62FB681B8D013B7F
:101D60009AB2FB681A85FB685B8D9BB2013B9AB205
:101D7000FB685A85FB681B685B6903F00403042B4E
:101D800024D1FB681B8D032B07D1FB681B681A68E5
:101D9000FB681B6822F480621A60FB681B681A6982
:101DA000FB685B6AD2B21A70FB685B6A5A1CFB68FC
:101DB0005A62FB681B8D013B9AB2FB681A85FB686F
:101DC0005B8D9BB2013B9AB2FB685A85FB681B8D09
:101DD000002B7FF488AEFB68202283F83D20FB684F
:101DE000002283F83E20FB68002283F83C20002379
:101DF00000E0022318462837BD4680BD04000100DC
:101E00000000002089B5F81480B588B000AF786074
:101E10000023BB617B681B685B687B617B68DB6A56
:101E20003B617B6893F83E30FB737B6893F83D30F1
:101E3000BB73FB7B102B03D0FB7B402B40F0C1809E
:101E40007B681B689B69BB617B681B685B69FB6186
:101E5000FB6903F00103002B0DD13B69B3F52A0F99
:101E600003D03B69B3F12A4F01D1012300E00023E5
:101E7000012B00F03281FB6903F00103002B0CD031
:101E80007B695B0A03F00103002B06D0786801F040
:101E9000FEFE786800F0EAFC92E0FB69DB0803F0E4
:101EA0000103002B09D07B695B0A03F00103002BBF
:101EB00003D0786800F05FFD82E0FB695B0803F007
:101EC0000103002B09D07B695B0A03F00103002B9F
:101ED00003D0786800F078FD72E0BB699B0803F0DE
:101EE0000103002B3BD07B681B685B6803F4006335
:101EF000B3F5006F00F0F380FB69DB0903F0010329
:101F0000002B0FD07B699B0A03F00103002B09D043
:101F1000FB699B0803F00103002B03D1786800F0F4
:101F200042F94DE0FB699B0803F00103002B00F030
:101F3000D6807B695B0A03F00103002B00F0CF80A1
:101F4000BB7B212B03D1786800F0C9F9C7E0FB7B8C
:101F5000402B40F0C480786800F037FABFE07B681F
:101F60001B685B6803F40063B3F5006F00F0B78093
:101F7000FB699B0903F00103002B0FD07B699B0ACF
:101F800003F00103002B09D0FB699B0803F0010358
:101F9000002B03D1786800F0B0FA11E0FB699B08D0
:101FA00003F00103002B00F09A807B695B0A03F0C9
:101FB0000103002B00F09380786800F066FB8EE050
:101FC0008DE07B681B6C002B04D07B681B685B6911
:101FD000FB6107E07B681B689B69BB617B681B68D2
:101FE0005B69FB61FB695B0803F00103002B12D006
:101FF0007B695B0A03F00103002B0CD07B681B6C30
:10200000002B03D07B681B689B69BB61B96978684A
:1020100000F031FF66E0FB691B0903F00103002BB0
:1020200009D07B695B0A03F00103002B03D07868B9
:1020300000F06CFF56E0BB7B212B02D0BB7B292B31
:1020400025D1FB69DB0903F00103002B0FD07B696D
:102050009B0A03F00103002B09D0FB699B0803F0E6
:102060000103002B03D1786800F049FE39E0FB69D9
:102070009B0803F00103002B33D07B695B0A03F05C
:102080000103002B2DD0786800F076FE29E0FB6973
:102090009B0903F00103002B0FD07B699B0A03F01F
:1020A0000103002B09D0FB699B0803F00103002BFF
:1020B00003D1786800F080FE14E0FB699B0803F010
:1020C0000103002B0ED07B695B0A03F00103002B98
:1020D00008D0786800F0AEFE04E000BF02E000BF68
:1020E00000E000BF2037BD4680BD80B483B000AFA4
:1020F000786000BF0C37BD4680BC704780B483B0A9
:1021000000AF786000BF0C37BD4680BC704780B41C
:1021100083B000AF786000BF0C37BD4680BC70470D
:1021200080B483B000AF786000BF0C37BD4680BC80
:10213000704780B483B000AF78600B46FB701346E5
:102140003B8000BF0C37BD4680BC704780B483B075
:1021500000AF786000BF0C37BD4680BC704780B4CC
:1021600083B000AF786000BF0C37BD4680BC7047BD
:1021700080B483B000AF786000BF0C37BD4680BC30
:10218000704780B483B000AF786000BF0C37BD46A5
:1021900080BC704780B483B000AF786000BF0C375C
:1021A000BD4680BC704780B584B000AF78607B6866
:1021B00093F83D30FB737B6893F83E30BB737B68CC
:1021C000DB6ABB607B681B8D002B50D1FB7B212B16
:1021D0004DD1BB68082B1DD0BB68202B1AD0BB6823
:1021E00013F5803F16D07B681B685A687B681B68B4
:1021F00022F4E0625A607B6811221A637B68002235
:1022000083F83E207B68202283F83D207868FFF722
:102210006CFF60E07B681B685A687B681B6822F46F
:10222000E0625A607B681B681A687B681B6842F42E
:1022300000721A607B6800221A637B68202283F890
:102240003D207B6893F83E30DBB2402B07D17B68A2
:10225000002283F83E207868FFF781FF3BE07B682F
:10226000002283F83E207868FFF73FFF33E0FB7BD6
:10227000212B05D0BB7B402B2DD1FB7B222B2AD1E0
:102280007B685B8D9BB2002B08D17B681B685A680A
:102290007B681B6822F480625A601CE07B6893F8BC
:1022A0003E30DBB2402B03D1786800F08EF812E0AC
:1022B0007B685B6A1A787B681B681A617B685B6A5B
:1022C0005A1C7B685A627B685B8D9BB2013B9AB259
:1022D0007B685A85FFE700BF1037BD4680BD80B5DB
:1022E00084B000AF78607B68DB6AFB607B6893F842
:1022F0003D30DBB2212B64D17B685B8D9BB2002B20
:1023000012D07B685B6A1A787B681B681A617B68ED
:102310005B6A5A1C7B685A627B685B8D9BB2013B8F
:102320009AB27B685A854CE0FB68082B1DD0FB688D
:10233000202B1AD0FB6813F5803F16D07B681B68F2
:102340005A687B681B6822F4E0625A607B6811223D
:102350001A637B68002283F83E207B68202283F882
:102360003D207868FFF7C1FE2BE07B681B685A6848
:102370007B681B6822F4E0625A607B681B681A68FD
:102380007B681B6842F400721A607B6800221A6343
:102390007B68202283F83D207B6893F83E30DBB2D7
:1023A000402B07D17B68002283F83E207868FFF736
:1023B000D6FE06E07B68002283F83E207868FFF7AF
:1023C00094FE00BF1037BD4680BD80B584B000AF1D
:1023D00078607B6893F83D30FB737B681B6D002B46
:1023E0001DD17B68DB6C012B0BD17B689B6CDAB257
:1023F0007B681B681A617B681B6D9A1C7B681A6579
:1024000077E07B689B6C9BB21B12DAB27B681B681F
:102410001A617B681B6D5A1C7B681A6569E07B68D2
:102420001B6D012B0BD17B689B6CDAB27B681B6840
:102430001A617B681B6D5A1C7B681A6559E07B68C2
:102440001B6D022B52D1FB7B222B0DD17B681B68AD
:102450001A687B681B6842F480721A607B681B6D87
:102460005A1C7B681A6544E07B685B8D9BB2002B2D
:1024700015D0FB7B212B12D17B685B6A1A787B68B5
:102480001B681A617B685B6A5A1C7B685A627B68AE
:102490005B8D9BB2013B9AB27B685A8529E07B68D1
:1024A0005B8D9BB2002B24D1FB7B212B21D17B6840
:1024B0001B685A687B681B6822F4E0625A607B687C
:1024C0001B681A687B681B6842F400721A607B689C
:1024D00000221A637B68202283F83D207B6800225B
:1024E00083F83E207868FFF73AFE02E07868FFF74D
:1024F0000DF900BF1037BD4680BD80B584B000AF78
:1025000078607B6893F83D30DBB2222B40F0B980D5
:102510007B68DB6AFB607B685B8D9BB2BB60BB68E2
:10252000032B21D97B681B681A697B685B6AD2B26E
:102530001A707B685B6A5A1C7B685A627B685B8D89
:102540009BB2013B9AB27B685A857B685B8D9BB2DC
:10255000032B40F096807B681B685A687B681B6879
:1025600022F480625A608CE07B68DB6A022B7FD0A9
:10257000BB68012B02D0BB68002B79D1786801F0D1
:10258000C9FA0346002B4CD17B681B681A687B682C
:102590001B6822F480621A607B681B685A687B683B
:1025A0001B6822F4E0625A607B681B681A697B68CA
:1025B0005B6AD2B21A707B685B6A5A1C7B685A628B
:1025C0007B685B8D9BB2013B9AB27B685A857B68C6
:1025D000202283F83D207B6893F83E30DBB2402B0D
:1025E0000AD17B68002283F83E207B6800221A63B0
:1025F0007868FFF7BDFD44E07B68002283F83E2049
:10260000FB68082B02D0FB68202B03D17B680022DB
:102610001A6302E07B6812221A637868FFF76EFD86
:102620002FE07B681B685A687B681B6822F4E062B5
:102630005A607B681B681A697B685B6AD2B21A7041
:102640007B685B6A5A1C7B685A627B685B8D9BB2B5
:10265000013B9AB27B685A857B68202283F83D2033
:102660007B68002283F83E207868FFF78AFD08E047
:102670007B681B685A687B681B6822F480625A601A
:10268000FFE700BF1037BD4680BD80B584B000AF06
:1026900078607B68DB6AFB607B685B8D9BB2042B98
:1026A0001BD17B681B685A687B681B6822F48062B8
:1026B0005A607B681B681A697B685B6AD2B21A70C1
:1026C0007B685B6A5A1C7B685A627B685B8D9BB235
:1026D000013B9AB27B685A85C4E07B685B8D9BB2F4
:1026E000032B29D17B681B685A687B681B6822F41E
:1026F00080625A60FB68042B0AD0FB68022B07D06B
:102700007B681B681A687B681B6822F480621A6009
:102710007B681B681A697B685B6AD2B21A707B6837
:102720005B6A5A1C7B685A627B685B8D9BB2013B7B
:102730009AB27B685A8595E07B685B8D9BB2022BD1
:102740007DD1FB68012B02D0FB68102B08D17B6880
:102750001B681A687B681B6822F480621A6016E0A6
:10276000FB68042B02D0FB68022B08D17B681B6836
:102770001A687B681B6842F480621A6007E07B6815
:102780001B681A687B681B6842F400721A607B68D9
:102790001B681A697B685B6AD2B21A707B685B6AD5
:1027A0005A1C7B685A627B685B8D9BB2013B9AB274
:1027B0007B685A857B681B681A697B685B6AD2B242
:1027C0001A707B685B6A5A1C7B685A627B685B8DF7
:1027D0009BB2013B9AB27B685A857B681B685A683A
:1027E0007B681B6822F440725A607B68202283F861
:1027F0003D207B6893F83E30DBB2402B0AD17B68EA
:10280000002283F83E207B6800221A637868FFF775
:10281000AFFC27E07B68002283F83E20FB68082B92
:1028200002D0FB68202B03D17B6800221A6302E0F0
:102830007B6812221A637868FFF760FC12E07B68FD
:102840001B681A697B685B6AD2B21A707B685B6A24
:102850005A1C7B685A627B685B8D9BB2013B9AB2C3
:102860007B685A8500BF1037BD4680BD80B483B0F9
:1028700000AF78607B6893F83E30DBB2402B17D115
:102880007B681B6D002B09D17B685B6CDBB21A4641
:102890007B681B6802F0FE021A6167E07B685B6C74
:1028A000DBB243F00103DAB27B681B681A615DE0BA
:1028B0007B681B69B3F5804F33D17B6893F83D305B
:1028C000DBB2212B09D17B685B6CDBB21A467B68DB
:1028D0001B6802F0FE021A6108E07B685B6CDBB2E9
:1028E00043F00103DAB27B681B681A617B685B6B9B
:1028F000002B04D07B685B6B9B6A002B08D17B6844
:102900009B6B002B32D07B689B6B9B6A002B2DD07E
:102910007B681B685A687B681B6842F400625A60D7
:1029200024E07B681B6D002B0ED17B685B6C9BB237
:10293000DB11DBB203F00603DBB263F00F03DAB2A4
:102940007B681B681A6111E07B681B6D012B0DD140
:102950007B685B6C9BB2DB11DBB203F00603DBB27E
:1029600063F00E03DAB27B681B681A6100BF0C3794
:10297000BD4680BC704780B483B000AF78607B6890
:102980005B6CDAB27B681B681A617B685B6B002B3F
:1029900004D07B685B6B9B6A002B08D17B689B6BC8
:1029A000002B0CD07B689B6B9B6A002B07D07B684D
:1029B0001B685A687B681B6842F400625A6000BF5B
:1029C0000C37BD4680BC704780B491B000AF7860D2
:1029D0007B6893F83E3087F83F307B68DB6ABB63E7
:1029E0007B681B6B7B637B6893F83D30DBB2222BEB
:1029F00040F074817B681B6D002B0FD197F83F303E
:102A0000402B0BD100233B637B681B685B693B63F6
:102A10007B681B689B693B633B6B6BE17B681B6D51
:102A2000002B1DD17B681B69B3F5404F18D10023E3
:102A3000FB627B681B685B69FB627B681B689B6948
:102A4000FB62FB6A7B681B681A687B681B6842F440
:102A500080721A607B681B6D5A1C7B681A6549E19D
:102A60007B685B8D9BB2002B13D10023BB627B681C
:102A70001B685B69BB627B681B689B69BB62BB6A46
:102A80007B681B681A687B681B6842F400721A60D6
:102A900020E17B685B8D9BB2012B40F08A80BB6B91
:102AA00013F5803F37D17B681B681A687B681B6809
:102AB00022F480621A607B681B685B6803F4006321
:102AC000B3F5006F13D17B681B681A687B681B68BD
:102AD00022F480621A6000237B627B681B685B695A
:102AE0007B627B681B689B697B627B6AF2E00023E8
:102AF0003B627B681B685B693B627B681B689B6908
:102B00003B623B6A7B681B681A687B681B6842F4FF
:102B100000721A60DEE0BB6B082B2ED0BB6B202B43
:102B20002BD07B6B122B02D1BB6B012B25D1BB6B46
:102B3000042B0ED0BB6B022B0BD0BB6B102B08D021
:102B40007B681B681A687B681B6822F480621A60C5
:102B500007E07B681B681A687B681B6842F4806228
:102B60001A600023FB617B681B685B69FB617B6803
:102B70001B689B69FB61FB69ACE07B681B681A689A
:102B80007B681B6822F480621A600023BB617B684B
:102B90001B685B69BB617B681B689B69BB61BB6928
:102BA0007B681B681A687B681B6842F400721A60B5
:102BB00090E07B685B8D9BB2022B58D1BB6B042BE2
:102BC00021D0BB6B022B1ED0BB6B102B1BD07B68A4
:102BD0001B681A687B681B6842F400621A60002355
:102BE0007B617B681B685B697B617B681B689B6999
:102BF0007B617B697B681B681A687B681B6822F4B1
:102C000080621A6012E07B681B681A687B681B6828
:102C100042F480621A6000233B617B681B685B6939
:102C20003B617B681B689B693B613B697B681B68F8
:102C30005B6803F40063B3F5006F4BD1BB6B13F516
:102C4000803F0BD0BB6B012B08D0BB6B082B05D092
:102C5000BB6B102B02D0BB6B202B3BD17B681B685E
:102C60005A687B681B6842F480525A6032E07B6885
:102C70001B681A687B681B6842F480621A607B6874
:102C80001B685B6803F40063B3F5006F17D1BB6B7F
:102C900013F5803F0BD0BB6B012B08D0BB6B082B0F
:102CA00005D0BB6B102B02D0BB6B202B07D17B68F0
:102CB0001B685A687B681B6842F480525A60002384
:102CC000FB607B681B685B69FB607B681B689B69BA
:102CD000FB60FB687B6800221A650BE00023BB6089
:102CE0007B681B685B69BB607B681B689B69BB601A
:102CF000BB68FFE700BF4437BD4680BC704780B566
:102D000084B000AF78607B6893F83D30FB737B68DC
:102D10005B8D9BB2002B2BD07B685B6A1A787B683B
:102D20001B681A617B685B6A5A1C7B685A627B6805
:102D30005B8D9BB2013B9AB27B685A857B685B8D49
:102D40009BB2002B14D1FB7B292B11D17B681B6814
:102D50005A687B681B6822F480625A607B68212273
:102D60001A637B68282283F83D207868FFF7CFF943
:102D700000BF1037BD4680BD80B483B000AF78601F
:102D80007B685B8D9BB2002B11D07B685B6A1A78E5
:102D90007B681B681A617B685B6A5A1C7B685A6295
:102DA0007B685B8D9BB2013B9AB27B685A8500BF02
:102DB0000C37BD4680BC704780B584B000AF7860EA
:102DC0007B6893F83D30FB737B685B8D9BB2002B77
:102DD0002CD07B681B681A697B685B6AD2B21A7058
:102DE0007B685B6A5A1C7B685A627B685B8D9BB20E
:102DF000013B9AB27B685A857B685B8D9BB2002B46
:102E000014D1FB7B2A2B11D17B681B685A687B6825
:102E10001B6822F480625A607B6822221A637B68F6
:102E2000282283F83D207868FFF77AF900BF103731
:102E3000BD4680BD80B483B000AF78607B685B8D99
:102E40009BB2002B12D07B681B681A697B685B6A97
:102E5000D2B21A707B685B6A5A1C7B685A627B68C4
:102E60005B8D9BB2013B9AB27B685A8500BF0C37E1
:102E7000BD4680BC704780B584B000AF78603960D3
:102E80000023FB737B6893F83D30DBB203F028032B
:102E9000282B27D17B681B685A687B681B6822F443
:102EA00080625A603B689B0803F00103002B01D14C
:102EB0000123FB733B68DB0903F00103002B03D103
:102EC0007B68DB68BB8102E07B689B69BB817B68B8
:102ED000002283F83C20BA89FB7B19467868FFF70B
:102EE00028F90EE00023BB607B681B685B69BB6050
:102EF0007B681B689B69BB60BB687B68002283F8AA
:102F00003C2000BF1037BD4680BD000080B584B0B6
:102F100000AF78607B6893F83D30FB737B681B687B
:102F20005A687B681B6822F4E0625A600023BB6029
:102F30007B681B685B69BB607B681B681A687B6881
:102F40001B6842F001021A60BB687B681B681A6844
:102F50007B681B6822F480621A607B681B685B6870
:102F600003F40063B3F5006F72D1FB7B222B02D018
:102F7000FB7B2A2B35D17B689B6B1B685B689AB205
:102F80007B685A857B685B8D9BB2002B05D07B6884
:102F90001B6C43F004027B681A647B681B685A68E8
:102FA0007B681B6822F400625A607B689B6B184642
:102FB000FEF7BEF80346012B49D07B689B6B694A3C
:102FC0005A637B689B6B1846FDF734FF0346002B62
:102FD0003DD07B689B6B5B6B7A68926B1046984721
:102FE00035E07B685B6B1B685B689AB27B685A85CF
:102FF0007B685B8D9BB2002B05D07B681B6C43F01C
:1030000004027B681A647B681B685A687B681B68CB
:1030100022F400625A607B685B6B1846FEF788F802
:103020000346012B14D07B685B6B4E4A5A637B6866
:103030005B6B1846FDF7FEFE0346002B08D07B684D
:103040005B6B5B6B7A68526B1046984700E000BF81
:103050007B685B8D9BB2002B3ED07B681B685B69F5
:1030600003F00403042B12D17B681B681A697B6888
:103070005B6AD2B21A707B685B6A5A1C7B685A62C0
:103080007B685B8D9BB2013B9AB27B685A857B68FB
:103090001B685B6903F04003402B12D17B681B68FF
:1030A0001A697B685B6AD2B21A707B685B6A5A1CC9
:1030B0007B685A627B685B8D9BB2013B9AB27B68EE
:1030C0005A857B685B8D9BB2002B05D07B681B6C9F
:1030D00043F004027B681A647B681B6C002B03D0EE
:1030E000786800F043F839E0FB7B2A2B09D17B6834
:1030F00000221A637B68282283F83D207868FFF756
:103100000FF87B6893F83D30DBB2282B11D17B6838
:10311000154ADA627B6800221A637B68202283F8F2
:103120003D207B68002283F83E207868FFF70EF888
:1031300014E07B681B6B222B02D0FB7B222B0DD172
:103140007B6800221A637B68202283F83D207B681D
:10315000002283F83E207868FEF7E2FF00BF1037B8
:10316000BD4680BD713600080000FFFF80B584B009
:1031700000AF78607B6893F83D30FB737B6893F811
:103180003E30BB73BB7B102B02D0BB7B402B0AD1E4
:10319000FB7B222B07D17B681B681A687B681B6846
:1031A00022F400621A60FB7B03F02803282B07D16E
:1031B0007B6800221A637B68282283F83D2015E093
:1031C0007B681B685B6803F40063B3F5006F0AD08B
:1031D000FB7B602B07D07B68202283F83D207B6837
:1031E000002283F83E207B6800221A637B681B68FC
:1031F0005B6803F40063B3F5006F62D17B681B6802
:103200005A687B681B6822F400625A607B685B6BBB
:1032100093F82130DBB2012B20D07B685B6B6A4ACC
:103220005A637B685B6B1846FDF704FE0346002B70
:1032300000F089807B681B681A687B681B6822F035
:1032400001021A607B68202283F83D207B685B6B5B
:103250005B6B7A68526B1046984774E07B689B6B97
:10326000594A5A637B689B6B1846FDF7E3FD03469A
:10327000002B68D07B681B685B6903F04003402B20
:103280000BD17B681B681A697B685B6AD2B21A70C3
:103290007B685B6A5A1C7B685A627B681B681A6889
:1032A0007B681B6822F001021A607B68202283F889
:1032B0003D207B689B6B5B6B7A68926B10469847EE
:1032C00041E07B6893F83D30DBB2602B25D17B6811
:1032D000202283F83D207B6800221A647B681B68EB
:1032E0005B6903F04003402B0BD17B681B681A69B4
:1032F0007B685B6AD2B21A707B685B6A5A1C7B6817
:103300005A627B681B681A687B681B6822F001029E
:103310001A607868FEF73EFF15E07B681B685B6902
:1033200003F04003402B0BD17B681B681A697B6854
:103330005B6AD2B21A707B685B6A5A1C7B685A62FD
:103340007868FEF71EFF7B681B6CBB60BB6803F0F0
:103350000103002B0ED1BB6803F00203002B09D13F
:10336000BB6803F00403002B04D1BB6803F008031F
:10337000002B07D07B681B685A687B681B6822F4A7
:10338000E0625A607B6893F83D30FB737B681B6C8E
:1033900003F00403042B13D1FB7B282B10D17B6893
:1033A0000A4ADA627B6800221A637B68202283F86B
:1033B0003D207B68002283F83E207868FEF7C6FE39
:1033C00000BF1037BD4680BD713600080000FFFF0A
:1033D00080B588B002AFF8607A603B600B467B81B5
:1033E000FB68DB6A7B617B69082B06D07B69012B5C
:1033F00003D07B6913F5803F08D1FB681B681A680E
:10340000FB681B6842F480721A600BE0FB681B6B60
:10341000122B07D1FB681B681A68FB681B6842F413
:1034200080721A603B6800937B6800224FF00111A4
:10343000F86800F0C5F90346002B0DD0FB681B6847
:103440001B6803F48073B3F5807F03D1FB684FF4EE
:1034500000721A64032335E0FB681B69B3F5804FE3
:1034600008D17B89DBB21A46FB681B6802F0FE02BA
:103470001A611BE07B89DB11DBB203F00603DBB2D0
:1034800063F00F03DAB2FB681B681A613B687A6865
:103490000E49F86800F00EFA0346002B01D0012314
:1034A00010E07B89DAB2FB681B681A613B687A68B6
:1034B0000749F86800F0FEF90346002B01D001230C
:1034C00000E0002318461837BD4680BD0800010003
:1034D0000200010080B588B002AFF8607A603B60FE
:1034E0000B467B81FB68DB6A7B61FB681B681A68A3
:1034F000FB681B6842F480621A607B69082B06D067
:103500007B69012B03D07B6913F5803F08D1FB68F1
:103510001B681A68FB681B6842F480721A600BE033
:10352000FB681B6B112B07D1FB681B681A68FB68D3
:103530001B6842F480721A603B6800937B6800222B
:103540004FF00111F86800F03BF90346002B0DD055
:10355000FB681B681B6803F48073B3F5807F03D19D
:10356000FB684FF400721A64032379E0FB681B695F
:10357000B3F5804F08D17B89DBB243F00103DAB2A7
:10358000FB681B681A615FE07B89DB11DBB203F02B
:103590000603DBB263F00F03DAB2FB681B681A6143
:1035A0003B687A683049F86800F084F90346002BDC
:1035B00001D0012354E07B89DAB2FB681B681A61F1
:1035C0003B687A682949F86800F074F90346002BD3
:1035D00001D0012344E000233B61FB681B685B6969
:1035E0003B61FB681B689B693B613B69FB681B682F
:1035F0001A68FB681B6842F480721A603B6800938B
:103600007B6800224FF00111F86800F0D9F80346FA
:10361000002B0DD0FB681B681B6803F48073B3F5A7
:10362000807F03D1FB684FF400721A64032317E014
:103630007B89DB11DBB203F00603DBB263F00E0320
:10364000DAB2FB681B681A613B687A680749F86858
:1036500000F030F90346002B01D0012300E00023E5
:1036600018461837BD4680BD080001000200010061
:1036700080B586B000AF78600023FB607B685B6A32
:103680007B617B6993F83D30FB744B4B1B68DB0817
:103690004A4AA2FB03231A0A13469B001344DA008A
:1036A000D31AFB60FB68002B06D17B691B6C43F0CF
:1036B00020027B691A640AE0FB68013BFB607B69BE
:1036C0001B681B6803F40073B3F5007FEAD07B69C5
:1036D0005B6B002B03D07B695B6B00229A627B697A
:1036E0009B6B002B03D07B699B6B00229A627B69EA
:1036F0001B681A687B691B6822F480621A607B6908
:1037000000225A857B695B6B002B03D07B695B6B66
:1037100000225A637B699B6B002B03D07B699B6BF8
:1037200000225A637B691B681A687B691B6822F058
:1037300001021A607B6993F83D30DBB2602B0ED139
:103740007B69202283F83D207B69002283F83E209C
:103750007B6900221A647869FEF71CFD27E0FB7C78
:1037600003F02803282B17D17B691B681A687B6933
:103770001B6842F001021A607B691B681A687B694A
:103780001B6842F480621A607B6900221A637B69BD
:10379000282283F83D2007E07B69202283F83D2022
:1037A0007B69002283F83E207869FEF7EAFC00BFBF
:1037B0001837BD4680BD00BF0000002089B5F81451
:1037C00080B584B000AFF860B9603B601346FB7110
:1037D00048E03B68B3F1FF3F44D0FDF795F902465E
:1037E000BB69D31A3A689A4202D33B68002B39D19D
:1037F000BB681B0CDBB2012B0DD1FB681B685B693E
:10380000DA43BB6813409BB2002B0CBF012300239B
:10381000DBB21A460CE0FB681B689B69DA43BB68A5
:1038200013409BB2002B0CBF01230023DBB21A46CE
:10383000FB799A4216D1FB6800221A63FB682022AA
:1038400083F83D20FB68002283F83E20FB681B6C58
:1038500043F02002FB681A64FB68002283F83C20D6
:10386000012323E0BB681B0CDBB2012B0DD1FB68ED
:103870001B685B69DA43BB6813409BB2002B0CBF2B
:1038800001230023DBB21A460CE0FB681B689B692E
:10389000DA43BB6813409BB2002B0CBF012300230B
:1038A000DBB21A46FB799A4293D0002318461037B0
:1038B000BD4680BD80B584B000AFF860B9607A6065
:1038C0003B6071E0FB681B685B6903F48063B3F5E0
:1038D000806F23D1FB681B681A68FB681B6842F481
:1038E00000721A60FB681B686FF480625A61FB68A3
:1038F00000221A63FB68202283F83D20FB68002227
:1039000083F83E20FB681B6C43F00402FB681A64DA
:10391000FB68002283F83C20012367E07B68B3F159
:10392000FF3F41D0FDF7F0F802463B68D31A7A68B2
:103930009A4202D37B68002B36D1BB681B0CDBB2EA
:10394000012B0CD1FB681B685B69DA43BB68134031
:103950009BB2002B14BF01230023DBB20BE0FB68FA
:103960001B689B69DA43BB6813409BB2002B14BFF2
:1039700001230023DBB2002B16D0FB6800221A6360
:10398000FB68202283F83D20FB68002283F83E205C
:10399000FB681B6C43F02002FB681A64FB68002282
:1039A00083F83C20012321E0BB681B0CDBB2012B18
:1039B0000CD1FB681B685B69DA43BB6813409BB2A0
:1039C000002B14BF01230023DBB20BE0FB681B6854
:1039D0009B69DA43BB6813409BB2002B14BF0123E1
:1039E0000023DBB2002B7FF46DAF002318461037A5
:1039F000BD4680BD80B584B000AFF860B9607A6024
:103A000034E0F86800F015F90346002B01D00123DB
:103A100034E0BB68B3F1FF3F28D0FDF775F80246EC
:103A20007B68D31ABA689A4202D3BB68002B1DD1B7
:103A3000FB681B685B6903F08003802B16D0FB6872
:103A400000221A63FB68202283F83D20FB680022D5
:103A500083F83E20FB681B6C43F02002FB681A646D
:103A6000FB68002283F83C20012307E0FB681B6809
:103A70005B6903F08003802BC3D100231846103705
:103A8000BD4680BD80B584B000AFF860B9607A6093
:103A900034E0F86800F0CDF80346002B01D0012394
:103AA00034E0BB68B3F1FF3F28D0FDF72DF80246A4
:103AB0007B68D31ABA689A4202D3BB68002B1DD127
:103AC000FB681B685B6903F00403042B16D0FB68DA
:103AD00000221A63FB68202283F83D20FB68002245
:103AE00083F83E20FB681B6C43F02002FB681A64DD
:103AF000FB68002283F83C20012307E0FB681B6879
:103B00005B6903F00403042BC3D10023184610376C
:103B1000BD4680BD80B485B000AF78600023FB60F7
:103B2000134B1B68DB08134AA2FB03231A0A134634
:103B30009B001344FB60FB68013BFB60FB68002BB0
:103B400007D17B681B6C43F020027B681A64012359
:103B500008E07B681B681B6803F40073B3F5007F03
:103B6000E9D0002318461437BD4680BC704700BF1B
:103B70000000002089B5F81480B584B000AFF8606B
:103B8000B9607A6049E0FB681B685B6903F0100369
:103B9000102B19D1FB681B686FF010025A61FB688B
:103BA00000221A63FB68202283F83D20FB68002274
:103BB00083F83E20FB681A6CFB681A64FB680022DD
:103BC00083F83C20012330E0FCF79EFF02467B682F
:103BD000D31ABA689A4202D3BB68002B1DD1FB6886
:103BE0001B685B6903F04003402B16D0FB68002282
:103BF0001A63FB68202283F83D20FB68002283F8CB
:103C00003E20FB681B6C43F02002FB681A64FB68D3
:103C1000002283F83C20012307E0FB681B685B69F6
:103C200003F04003402BAED1002318461037BD46A9
:103C300080BD80B483B000AF78607B681B685B692F
:103C400003F48063B3F5806F1BD17B681B686FF44E
:103C500080625A617B6800221A637B68202283F8A5
:103C60003D207B68002283F83E207B681B6C43F07C
:103C700004027B681A647B68002283F83C200123DD
:103C800000E0002318460C37BD4680BC704780B466
:103C900083B000AF78607B68DB6AB3F52A0F03D18D
:103CA0007B680122DA6207E07B68DB6AB3F12A4FA6
:103CB00002D17B680822DA6200BF0C37BD4680BCA7
:103CC0007047000080B586B000AF78607B68002B3D
:103CD00001D1012372E27B681B6803F00103002B12
:103CE00000F08780924B5B6803F00C03042B0CD030
:103CF0008F4B5B6803F00C03082B12D18C4B5B6875
:103D000003F48033B3F5803F0BD1894B1B6803F478
:103D10000033002B6CD07B685B68002B68D10123DB
:103D20004CE27B685B68B3F5803F06D1804B1B6833
:103D30007F4A43F4803313602EE07B685B68002B7E
:103D40000CD17B4B1B687A4A23F480331360784B89
:103D50001B68774A23F4802313601DE07B685B684F
:103D6000B3F5A02F0CD1724B1B68714A43F480232A
:103D700013606F4B1B686E4A43F4803313600BE093
:103D80006B4B1B686A4A23F480331360684B1B68D3
:103D9000674A23F4802313607B685B68002B13D091
:103DA000FCF7B2FE386108E0FCF7AEFE02463B6964
:103DB000D31A642B01D9032300E25D4B1B6803F483
:103DC0000033002BF0D014E0FCF79EFE386108E0D1
:103DD000FCF79AFE02463B69D31A642B01D90323F0
:103DE000ECE1534B1B6803F40033002BF0D100E0EF
:103DF00000BF7B681B6803F00203002B63D04C4BB1
:103E00005B6803F00C03002B0BD0494B5B6803F09D
:103E10000C03082B1CD1464B5B6803F48033002B4A
:103E200016D1434B1B6803F00203002B05D07B68BF
:103E30001B69012B01D00123C0E13D4B1B6823F01E
:103E4000F8027B685B69DB00394913430B603AE099
:103E50007B681B69002B20D0364B01221A60FCF7CF
:103E600053FE386108E0FCF74FFE02463B69D31A67
:103E7000022B01D90323A1E12D4B1B6803F00203A0
:103E8000002BF0D02A4B1B6823F0F8027B685B699B
:103E9000DB00274913430B6015E0264B00221A6014
:103EA000FCF732FE386108E0FCF72EFE02463B6963
:103EB000D31A022B01D9032380E11D4B1B6803F0A9
:103EC0000203002BF0D17B681B6803F00803002B72
:103ED0003AD07B689B69002B19D0174B01221A60DE
:103EE000FCF712FE386108E0FCF70EFE02463B6963
:103EF000D31A022B01D9032360E10D4B5B6A03F057
:103F00000203002BF0D0012000F0CEFA1CE00A4B97
:103F100000221A60FCF7F8FD38610FE0FCF7F4FDB1
:103F200002463B69D31A022B08D9032346E100BF9E
:103F3000001002400000424280044242924B5B6A01
:103F400003F00203002BE9D17B681B6803F0040334
:103F5000002B00F0A6800023FB758B4BDB6903F080
:103F60008053002B0DD1884BDB69874A43F0805387
:103F7000D361854BDB6903F08053BB60BB680123D1
:103F8000FB75824B1B6803F48073002B18D17F4BA9
:103F90001B687E4A43F480731360FCF7B5FD3861FB
:103FA00008E0FCF7B1FD02463B69D31A642B01D946
:103FB000032303E1754B1B6803F48073002BF0D0DF
:103FC0007B68DB68012B06D16F4B1B6A6E4A43F09E
:103FD000010313622DE07B68DB68002B0CD16A4B78
:103FE0001B6A694A23F001031362674B1B6A664A26
:103FF00023F0040313621CE07B68DB68052B0CD103
:10400000614B1B6A604A43F0040313625E4B1B6AF8
:104010005D4A43F0010313620BE05B4B1B6A5A4A93
:1040200023F001031362584B1B6A574A23F0040321
:1040300013627B68DB68002B15D0FCF765FD3861E7
:104040000AE0FCF761FD02463B69D31A41F288326F
:10405000934201D90323B1E04B4B1B6A03F00203E7
:10406000002BEED014E0FCF74FFD38610AE0FCF7BE
:104070004BFD02463B69D31A41F28832934201D983
:1040800003239BE0404B1B6A03F00203002BEED19D
:10409000FB7D012B05D13C4BDB693B4A23F0805370
:1040A000D3617B68DB69002B00F08780364B5B684F
:1040B00003F00C03082B61D07B68DB69022B46D12F
:1040C000334B00221A60FCF71FFD386108E0FCF753
:1040D0001BFD02463B69D31A022B01D903236DE075
:1040E000294B1B6803F00073002BF0D17B681B6A1F
:1040F000B3F5803F08D1244B5B6823F400327B6822
:104100009B68214913434B601F4B5B6823F4741277
:104110007B68196A7B685B6A0B431B4913434B60DE
:104120001B4B01221A60FCF7EFFC386108E0FCF73A
:10413000EBFC02463B69D31A022B01D903233DE075
:10414000114B1B6803F00073002BF0D035E0104BCF
:1041500000221A60FCF7D8FC386108E0FCF7D4FCB8
:1041600002463B69D31A022B01D9032326E0064BF2
:104170001B6803F00073002BF0D11EE07B68DB6945
:10418000012B07D1012319E000100240007000400C
:10419000600042420B4B5B68FB60FB6803F48032BB
:1041A0007B681B6A9A4206D1FB6803F470127B6835
:1041B0005B6A9A4201D0012300E0002318461837B9
:1041C000BD4680BD0010024080B584B000AF78606D
:1041D00039607B68002B01D10123D0E06A4B1B685A
:1041E00003F007033A689A4210D9674B1B6823F023
:1041F000070265493B6813430B60634B1B6803F080
:1042000007033A689A4201D00123B8E07B681B6833
:1042100003F00203002B20D07B681B6803F004032B
:10422000002B05D0594B5B68584A43F4E063536058
:104230007B681B6803F00803002B05D0534B5B68B9
:10424000524A43F460535360504B5B6823F0F002D2
:104250007B689B684D4913434B607B681B6803F088
:104260000103002B40D07B685B68012B07D1474BD3
:104270001B6803F40033002B15D101237FE07B681A
:104280005B68022B07D1414B1B6803F00073002BC6
:1042900009D1012373E03D4B1B6803F00203002B9F
:1042A00001D101236BE0394B5B6823F003027B688B
:1042B0005B68364913434B60FCF726FCF8600AE064
:1042C000FCF722FC0246FB68D31A41F28832934283
:1042D00001D9032353E02D4B5B6803F00C027B688C
:1042E0005B689B009A42EBD1274B1B6803F00703E6
:1042F0003A689A4210D2244B1B6823F007022249E5
:104300003B6813430B60204B1B6803F007033A68BC
:104310009A4201D0012332E07B681B6803F004035A
:10432000002B08D0194B5B6823F4E0627B68DB68E4
:10433000164913434B607B681B6803F00803002B8E
:1043400009D0124B5B6823F460527B681B69DB0069
:104350000E4913434B6000F021F802460B4B5B689B
:104360001B0903F00F030A49CB5C22FA03F3094A45
:104370001360094B1B681846FCF784FB00231846A2
:104380001037BD4680BD00BF002002400010024033
:1043900074790008000000200400002080B487B079
:1043A00000AF0023FB600023BB6000237B61002380
:1043B0007B6000233B611E4B5B68FB60FB6803F086
:1043C0000C03042B02D0082B03D027E0194B3B61D0
:1043D00027E0FB689B0C03F00F03174AD35C7B605C
:1043E000FB6803F48033002B10D0114B5B685B0C2F
:1043F00003F00103114AD35CBB607B680D4A03FBE9
:1044000002F2BB68B2FBF3F37B6104E07B680C4A09
:1044100002FB03F37B617B693B6102E0054B3B617F
:1044200000BF3B6918461C37BD4680BC704700BFC3
:104430000010024000127A008C7900089C79000874
:1044400000093D0080B400AF024B1B681846BD4612
:1044500080BC70470000002080B500AFFFF7F2FF7E
:104460000246054B5B681B0A03F007030349CB5C5C
:1044700022FA03F3184680BD001002408479000838
:1044800080B500AFFFF7DEFF0246054B5B68DB0A35
:1044900003F007030349CB5C22FA03F3184680BDFF
:1044A000001002408479000880B485B000AF7860C5
:1044B0000A4B1B680A4AA2FB03235B0A7A6802FBC9
:1044C00003F3FB6000BFFB685A1EFA60002BF9D1B2
:1044D00000BF00BF1437BD4680BC704700000020FD
:1044E000D34D621080B582B000AF78607B68002B3E
:1044F00001D1012342E07B6893F84130DBB2002B0D
:1045000006D17B68002283F840207868FCF7BCF96C
:104510007B68242283F841207B681B68DA687B680B
:104520001B6822F40052DA60786800F071F97B6849
:104530001B681A697B681B6822F490421A617B68C9
:104540001B685A697B681B6822F02A025A617B68E3
:104550001B68DA687B681B6842F40052DA607B688B
:1045600000225A647B68202283F841207B68202245
:1045700083F842207B6800225A63002318460837DC
:10458000BD4680BD80B58AB002AFF860B9603B60BF
:104590001346FB8000237B61FB6893F84130DBB25C
:1045A000202B75D1BB68002B02D0FB88002B01D1DA
:1045B00001236EE0FB6800225A64FB68212283F825
:1045C0004120FCF7A1FA7861FB68FA889A84FB68BD
:1045D000FA88DA84FB689B68B3F5805F08D1FB68D2
:1045E0001B69002B04D10023FB61BB68BB6103E0A6
:1045F000BB68FB610023BB612EE03B6800937B69D5
:1046000000228021F86800F048F80346002B05D00E
:10461000FB68202283F8412003233AE0FB69002B4A
:104620000BD1BB691B881A46FB681B68C2F30802E2
:104630005A60BB690233BB6107E0FB691A78FB680B
:104640001B685A60FB690133FB61FB68DB8C9BB222
:10465000013B9AB2FB68DA84FB68DB8C9BB2002BCF
:10466000CBD13B6800937B6900224021F86800F0C1
:1046700014F80346002B05D0FB68202283F8412064
:10468000032306E0FB68202283F84120002300E09A
:10469000022318462037BD4680BD80B586B000AFE6
:1046A000F860B9603B601346FB713BE03B6AB3F1D5
:1046B000FF3F37D0FCF728FA02463B68D31A3A6A24
:1046C0009A4202D33B6A002B01D103233AE0FB68F4
:1046D0001B68DB6803F00403002B23D0BB68802B2E
:1046E00020D0BB68402B1DD0FB681B681B6803F003
:1046F0000803082B16D100237B61FB681B681B682D
:104700007B61FB681B685B687B617B69F86800F014
:104710001DF8FB6808225A64FB68002283F84020D9
:1047200001230FE0FB681B681A68BB681340BA6876
:104730009A420CBF01230023DBB21A46FB799A424E
:10474000B4D0002318461837BD4680BD80B495B05C
:1047500000AF78607B681B680C337B637B6B53E82E
:10476000003F3B633B6B23F49073FB647B681B68E7
:104770000C33FA6C3A64FB63F96B3A6C41E8002342
:10478000BB63BB6B002BE5D17B681B6814333B62BA
:104790003B6A53E8003FFB61FB6923F00103BB6404
:1047A0007B681B681433BA6CFA62BB62B96AFA6A36
:1047B00041E800237B627B6A002BE5D17B681B6BA1
:1047C000012B19D17B681B680C33FB60FB6853E835
:1047D000003FBB60BB6823F010037B647B681B68F1
:1047E0000C337A6CBA617B617969BA6941E800235C
:1047F0003B613B69002BE5D17B68202283F8422096
:104800007B6800221A6300BF5437BD4680BC7047E6
:1048100080B584B000AF78607B681B681B6923F4A7
:1048200040517B68DA687B681B680A431A617B68C1
:104830009A687B681B691A437B685B691343BB609A
:104840007B681B68DB6823F4B05323F00C037A68A1
:104850001268B9680B43D3607B681B685B6923F4FB
:1048600040717B689A697B681B680A435A617B6860
:104870001B682C4A934203D1FFF702FEF86002E066
:10488000FFF7EAFDF860FA6813469B0013449A00AC
:104890001A447B685B689B00B2FBF3F3224AA2FBDD
:1048A00003235B091901FA6813469B0013449A001D
:1048B0001A447B685B689B00B2FBF3F21A4BA3FBC4
:1048C00002035B09642000FB03F3D31A1B0132339C
:1048D000154AA2FB03235B0903F0F0031944FA68AD
:1048E00013469B0013449A001A447B685B689B0044
:1048F000B2FBF3F20C4BA3FB02035B09642000FB49
:1049000003F3D31A1B013233074AA2FB03235B09CB
:1049100003F00F027B681B680A449A6000BF1037DF
:10492000BD4680BD003801401F85EB5180B483B087
:1049300000AF03463960FB7197F90730002B0ADBA3
:104940003B68DAB20C4997F907301201D2B20B4436
:1049500083F800230AE03B68DAB20849FB7903F0E8
:104960000F03043B1201D2B20B441A7600BF0C377E
:10497000BD4680BC704700BF00E100E000ED00E0F4
:1049800080B500AF00216FF00400FFF7CFFF00BF3C
:1049900080BD000080B483B000AFEFF305833B60BF
:1049A0003B68002B03D06FF005037B600CE0094BE4
:1049B0001B68002B05D1074B01221A6000237B6086
:1049C00002E04FF0FF337B607B6818460C37BD4632
:1049D00080BC70478C01002080B582B000AFEFF33F
:1049E00005833B603B68002B03D06FF005037B60C1
:1049F00010E00B4B1B68012B09D1FFF7C1FF084BDF
:104A000002221A6001F066FA00237B6002E04FF098
:104A1000FF337B607B6818460837BD4680BD00BF0A
:104A20008C01002080B58EB004AFF860B9607A6068
:104A300000233B61EFF305837B617B69002B7ED113
:104A4000FB68002B7BD080233B621823FB61002393
:104A50007B624FF0FF33BB617B68002B45D07B68E6
:104A60001B68002B02D07B681B687B627B689B699C
:104A7000002B02D07B689B69FB61FB69002B08D08F
:104A8000FB69382B05D87B685B6803F00103002BBA
:104A900001D0002354E07B685B69002B03D07B6866
:104AA0005B699B083B627B689B68002B0ED07B6830
:104AB000DB685B2B0AD97B681B69002B06D07B68FF
:104AC0005B69002B02D00123BB6110E07B689B680F
:104AD000002B0CD17B68DB68002B08D17B681B693D
:104AE000002B04D10023BB6101E00023BB61BB6943
:104AF000012B10D17B681B697A689268029201933E
:104B0000FB690093BB683A6A796AF86801F006F8B5
:104B100003463B6113E0BB69002B10D13B6A9AB29C
:104B200007F110030193FB690093BB68796AF86889
:104B300001F054F80346012B01D000233B613B698F
:104B400018462837BD4680BD80B584B000AF786078
:104B5000EFF30583BB60BB68002B03D06FF0050348
:104B6000FB6007E00023FB607B68002B02D07868C5
:104B700001F07AF9FB6818461037BD4680BD80B554
:104B80008AB002AFF860B9607A600023FB61EFF38E
:104B900005833B613B69002B75D1FB68002B72D00C
:104BA000BA68FB689A426ED84FF0FF33BB617B68EE
:104BB000002B15D07B689B68002B06D07B68DB68D8
:104BC0004F2B02D90123BB610CE07B689B68002B53
:104BD00008D17B68DB68002B04D10023BB6101E0B6
:104BE0000023BB61BB69B3F1FF3F4CD0FB68012BD5
:104BF00028D1BB69012B0AD17B689B6803220092F4
:104C000000220021012000F003FAF86105E00322F0
:104C10000021012000F079FAF861FB69002B22D015
:104C2000BB68002B1FD0002300220021F86900F090
:104C300039FB0346012B16D0F86900F0B5FD0023BF
:104C4000FB6110E0BB69012B08D17B689B681A46A9
:104C5000B968F86800F0B7FAF86104E0B968F86874
:104C600000F0EAFAF861FB69002B0CD07B68002B9E
:104C700003D07B681B687B6101E000237B6179695D
:104C8000F86900F0C5FEFB6918462037BD4680BDB7
:104C900080B58AB002AFF860B9607A600023FB612A
:104CA000EFF305833B613B69002B5FD1FB68002B71
:104CB0005CD0BB68002B59D04FF0FF33BB617B68E1
:104CC000002B29D07B689B68002B12D07B68DB68A7
:104CD0004F2B0ED97B681B69002B0AD07B685A6961
:104CE000FB68B96801FB03F39A4202D30123BB615D
:104CF00014E07B689B68002B10D17B68DB68002B7D
:104D00000CD17B681B69002B08D17B685B69002B89
:104D100004D10023BB6101E00023BB61BB69012B0F
:104D20000BD17B681A697B689B6800210091B96888
:104D3000F86800F06DF9F86108E0BB69002B05D157
:104D40000022B968F86800F0E0F9F861FB69002B0F
:104D50000CD07B68002B03D07B681B687B6101E073
:104D600000237B617969F86900F052FEFB691846FF
:104D70002037BD4680BD000080B485B000AFF8602C
:104D8000B9607A60FB68064A1A60BB68054A1A6017
:104D90007B6880221A6000BF1437BD4680BC704714
:104DA00090010020EC01002080B485B000AFF860D5
:104DB000B9607A60FB68074A1A60BB68064A1A60E5
:104DC0007B684FF480721A6000BF1437BD4680BC08
:104DD000704700BFEC0300204804002080B483B07B
:104DE00000AF78607B6803F108027B685A607B68DB
:104DF0004FF0FF329A607B6803F108027B68DA604B
:104E00007B6803F108027B681A617B6800221A60E4
:104E100000BF0C37BD4680BC704780B483B000AF84
:104E200078607B6800221A6100BF0C37BD4680BCE9
:104E3000704780B485B000AF786039607B685B688C
:104E4000FB603B68FA685A60FB689A683B689A6046
:104E5000FB689B683A685A60FB683A689A603B68EE
:104E60007A681A617B681B685A1C7B681A6000BFED
:104E70001437BD4680BC704780B485B000AF786001
:104E800039603B681B68BB60BB68B3F1FF3F03D16F
:104E90007B681B69FB600CE07B680833FB6002E009
:104EA000FB685B68FB60FB685B681B68BA689A42DA
:104EB000F6D2FB685A683B685A603B685B683A68A0
:104EC0009A603B68FA689A60FB683A685A603B6887
:104ED0007A681A617B681B685A1C7B681A6000BF7D
:104EE0001437BD4680BC704780B485B000AF786091
:104EF0007B681B69FB607B685B687A6892689A6074
:104F00007B689B687A6852685A60FB685B687A685D
:104F10009A4203D17B689A68FB685A607B680022DA
:104F20001A61FB681B685A1EFB681A60FB681B68E5
:104F300018461437BD4680BC7047000080B584B069
:104F400000AF786039607B68FB60FB68002B0BD199
:104F50004FF0500383F31188BFF36F8FBFF34F8F70
:104F6000BB6000BF00BFFDE702F028F9FB681A68CC
:104F7000FB68DB6BF968096C01FB03F31A44FB68FF
:104F80009A60FB6800229A63FB681A68FB685A60A3
:104F9000FB681A68FB68DB6B013BF968096C01FB75
:104FA00003F31A44FB68DA60FB68FF2283F84420AD
:104FB000FB68FF2283F845203B68002B14D1FB6877
:104FC0001B69002B1AD0FB681033184601F00EFA4B
:104FD0000346002B12D00D4B4FF080521A60BFF3E6
:104FE0004F8FBFF36F8F09E0FB6810331846FFF750
:104FF000F5FEFB6824331846FFF7F0FE02F00EF9C9
:10500000012318461037BD4680BD00BF04ED00E007
:1050100080B58EB002AFF860B9607A603B60FB6823
:10502000002B0BD14FF0500383F31188BFF36F8F28
:10503000BFF34F8FBB6200BF00BFFDE73B68002B93
:105040000BD14FF0500383F31188BFF36F8FBFF381
:105050004F8F7B6200BF00BFFDE77B68002B02D053
:10506000BB68002B01D0012300E00023002B0BD1F3
:105070004FF0500383F31188BFF36F8FBFF34F8F4F
:105080003B6200BF00BFFDE77B68002B02D1BB681D
:10509000002B01D1012300E00023002B0BD14FF0A6
:1050A000500383F31188BFF36F8FBFF34F8FFB6102
:1050B00000BF00BFFDE750237B617B69502B0BD005
:1050C0004FF0500383F31188BFF36F8FBFF34F8FFF
:1050D000BB6100BF00BFFDE77B693B68FB62FB6A09
:1050E000002B0DD0FB6A012283F8462097F8382068
:1050F000FB6A009313467A68B968F86800F040F8D4
:10510000FB6A18463037BD4680BD80B58AB002AF15
:10511000F860B9601346FB71FB68002B0BD14FF0B0
:10512000500383F31188BFF36F8FBFF34F8F3B6141
:1051300000BF00BFFDE7FB68BA6802FB03F3FB6139
:10514000FB695033184602F03BF9B861BB69002B8C
:1051500011D0BB697B617B6950337B61BB690022E5
:1051600083F84620FA79BB69009313467A69B968D7
:10517000F86800F005F8BB6918462037BD4680BDC9
:1051800080B584B000AFF860B9607A60FB70BB682E
:10519000002B03D1BB69BA691A6002E0BB697A6867
:1051A0001A60BB69FA68DA63BB69BA681A640121DC
:1051B000B869FFF7C3FEBB69FA7883F84C2000BFDB
:1051C0001037BD4680BD80B58AB002AFF860B960C7
:1051D0007A60FB68002B0BD14FF0500383F31188EA
:1051E000BFF36F8FBFF34F8FBB6100BF00BFFDE701
:1051F000BA68FB689A420BD94FF0500383F31188C9
:10520000BFF36F8FBFF34F8F7B6100BF00BFFDE720
:10521000022300937B6800220021F868FFF7F8FE64
:10522000F861FB69002B02D0FB69BA689A63FB69DD
:1052300018462037BD4680BD80B586B000AF786087
:1052400039607B68002B0BD14FF0500383F311883A
:10525000BFF36F8FBFF34F8F3B6100BF00BFFDE710
:105260003A687B689A420BD94FF0500383F3118858
:10527000BFF36F8FBFF34F8FFB6000BF00BFFDE731
:10528000022200217868FFF740FF78617B69002BDC
:1052900002D07B693A689A637B6918461837BD4625
:1052A00080BD000080B58EB000AFF860B9607A6054
:1052B0003B6000237B63FB683B633B6B002B0BD1A4
:1052C0004FF0500383F31188BFF36F8FBFF34F8FFD
:1052D000BB6200BF00BFFDE7BB68002B03D13B6B87
:1052E0001B6C002B01D1012300E00023002B0BD10C
:1052F0004FF0500383F31188BFF36F8FBFF34F8FCD
:105300007B6200BF00BFFDE73B68022B03D13B6B14
:10531000DB6B012B01D1012300E00023002B0BD11B
:105320004FF0500383F31188BFF36F8FBFF34F8F9C
:105330003B6200BF00BFFDE701F018FA0346002BF7
:1053400002D17B68002B01D1012300E00023002B58
:105350000BD14FF0500383F31188BFF36F8FBFF36E
:105360004F8FFB6100BF00BFFDE701F027FF3B6BE4
:105370009A6B3B6BDB6B9A4202D33B68022B29D1C1
:105380003A68B968386B00F033FAF8623B6B5B6AD5
:10539000002B10D03B6B2433184601F027F803464E
:1053A000002B13D03F4B4FF080521A60BFF34F8F4A
:1053B000BFF36F8F0AE0FB6A002B07D0394B4FF029
:1053C00080521A60BFF34F8FBFF36F8F01F026FF3B
:1053D000012363E07B68002B03D101F01FFF002352
:1053E0005CE07B6B002B06D107F11403184601F03B
:1053F00061F801237B6301F011FF00F0D3FD01F0A0
:10540000DDFE3B6B93F844305BB2B3F1FF3F03D159
:105410003B6B002283F844203B6B93F845305BB232
:10542000B3F1FF3F03D13B6B002283F8452001F02D
:10543000F5FE3A1D07F114031146184601F050F825
:105440000346002B24D1386B00F0CAFA0346002B28
:1054500018D03B6B10337A681146184600F074FF81
:10546000386B00F055FA00F0ABFD0346002B7FF4DB
:105470007CAF0C4B4FF080521A60BFF34F8FBFF3DD
:105480006F8F72E7386B00F043FA00F099FD6CE71C
:10549000386B00F03DFA00F093FD002318463837D2
:1054A000BD4680BD04ED00E080B590B000AFF8606F
:1054B000B9607A603B60FB68BB63BB6B002B0BD1B0
:1054C0004FF0500383F31188BFF36F8FBFF34F8FFB
:1054D000BB6200BF00BFFDE7BB68002B03D1BB6B05
:1054E0001B6C002B01D1012300E00023002B0BD10A
:1054F0004FF0500383F31188BFF36F8FBFF34F8FCB
:105500007B6200BF00BFFDE73B68022B03D1BB6B92
:10551000DB6B012B01D1012300E00023002B0BD119
:105520004FF0500383F31188BFF36F8FBFF34F8F9A
:105530003B6200BF00BFFDE701F002FFEFF3118205
:105540004FF0500383F31188BFF36F8FBFF34F8F7A
:10555000FA61BB61FB697B63BB6B9A6BBB6BDB6BFB
:105560009A4202D33B68022B2FD1BB6B93F8453094
:1055700087F83330BB6B9B6BFB623A68B968B86BDA
:1055800000F036F997F93330B3F1FF3F12D1BB6B1E
:105590005B6A002B16D0BB6B2433184600F026FF45
:1055A0000346002B0ED07B68002B0BD07B680122BA
:1055B0001A6007E097F833300133DBB25AB2BB6BA5
:1055C00083F845200123FB6301E00023FB637B6B31
:1055D0007B617B6983F3118800BFFB6B1846403702
:1055E000BD4680BD80B58CB000AFF860B9607A6010
:1055F0000023FB62FB68BB62BB6A002B0BD14FF040
:10560000500383F31188BFF36F8FBFF34F8F3B625B
:1056100000BF00BFFDE7BB68002B03D1BB6A1B6C5A
:10562000002B01D1012300E00023002B0BD14FF010
:10563000500383F31188BFF36F8FBFF34F8FFB616C
:1056400000BF00BFFDE701F091F80346002B02D137
:105650007B68002B01D1012300E00023002B0BD13C
:105660004FF0500383F31188BFF36F8FBFF34F8F59
:10567000BB6100BF00BFFDE701F0A0FDBB6A9B6BF3
:105680007B627B6A002B1FD0B968B86A00F01AF9F8
:105690007B6A5A1EBB6A9A63BB6A1B69002B0FD0D8
:1056A000BB6A1033184600F0A1FE0346002B07D05A
:1056B0003C4B4FF080521A60BFF34F8FBFF36F8F98
:1056C00001F0ACFD012369E07B68002B03D101F000
:1056D000A5FD002362E0FB6A002B06D107F1100351
:1056E000184600F0E7FE0123FB6201F097FD00F091
:1056F00059FC01F063FDBB6A93F844305BB2B3F12F
:10570000FF3F03D1BB6A002283F84420BB6A93F8B1
:1057100045305BB2B3F1FF3F03D1BB6A002283F88F
:10572000452001F07BFD3A1D07F110031146184694
:1057300000F0D6FE0346002B23D1B86A00F03AF9F8
:105740000346002B17D0BB6A24337A6811461846EB
:1057500000F0FAFDB86A00F0DBF800F031FC034617
:10576000002B89D10F4B4FF080521A60BFF34F8F3F
:10577000BFF36F8F80E7B86A00F0CAF800F020FC32
:105780007AE7B86A00F0C4F800F01AFCB86A00F0D2
:1057900011F90346002B3FF46FAF00231846303752
:1057A000BD4680BD04ED00E080B584B000AF7860F8
:1057B0007B68FB60FB68002B0BD14FF0500383F339
:1057C0001188BFF36F8FBFF34F8FBB6000BF00BF67
:1057D000FDE7F86800F044F9FB6893F84630002BC9
:1057E00002D1F86801F0BAFE00BF1037BD4680BD97
:1057F00080B586B000AFF860B9607A6000237B6145
:10580000FB689B6B3B61FB681B6C002B0DD1FB683D
:105810001B68002B4DD1FB689B68184600F0C4FF45
:105820007861FB6800229A6043E07B68002B19D105
:10583000FB685868FB681B6C1A46B96801F0D8FF12
:10584000FB685A68FB681B6C1A44FB685A60FB686B
:105850005A68FB689B689A422BD3FB681A68FB68FE
:105860005A6026E0FB68D868FB681B6C1A46B9686A
:1058700001F0BEFFFB68DA68FB681B6C5B421A44F0
:10588000FB68DA60FB68DA68FB681B689A4207D23B
:10589000FB689A68FB681B6C5B421A44FB68DA6021
:1058A0007B68022B05D13B69002B02D03B69013B91
:1058B0003B613B695A1CFB689A637B691846183741
:1058C000BD4680BD80B582B000AF786039607B682E
:1058D0001B6C002B18D07B68DA687B681B6C1A4441
:1058E0007B68DA607B68DA687B689B689A4203D3DE
:1058F0007B681A687B68DA607B68D9687B681B6C98
:105900001A46386801F074FF00BF0837BD4680BDF5
:1059100080B584B000AF786001F050FC7B6893F8EC
:105920004530FB7311E07B685B6A002B12D07B680B
:105930002433184600F05AFD0346002B01D000F036
:1059400033FEFB7B013BDBB2FB7397F90F30002B7F
:10595000E9DC00E000BF7B68FF2283F8452001F00E
:105960005DFC01F02BFC7B6893F84430BB7311E0C5
:105970007B681B69002B12D07B681033184600F03F
:1059800035FD0346002B01D000F00EFEBB7B013B32
:10599000DBB2BB7397F90E30002BE9DC00E000BFEF
:1059A0007B68FF2283F8442001F038FC00BF1037E9
:1059B000BD4680BD80B584B000AF786001F0FEFBCD
:1059C0007B689B6B002B02D10123FB6001E000236D
:1059D000FB6001F023FCFB6818461037BD4680BD14
:1059E00080B584B000AF786001F0E8FB7B689A6B0B
:1059F0007B68DB6B9A4202D10123FB6001E000234C
:105A0000FB6001F00BFCFB6818461037BD4680BDFB
:105A100080B485B000AF786039600023FB6014E08B
:105A20000E4AFB6852F83330002B0BD10B49FB6850
:105A30003A6841F83320094AFB68DB0013447A686E
:105A40005A6006E0FB680133FB60FB68072BE7D96F
:105A500000BF00BF1437BD4680BC70474808002017
:105A600080B485B000AF78600023FB6016E0104A78
:105A7000FB68DB0013445B687A689A420BD10C4ADE
:105A8000FB68002142F83310094AFB68DB0013442D
:105A900000225A6006E0FB680133FB60FB68072BBD
:105AA000E5D900BF00BF1437BD4680BC704700BFBA
:105AB0004808002080B586B000AFF860B9607A6011
:105AC000FB687B6101F07AFB7B6993F844305BB241
:105AD000B3F1FF3F03D17B69002283F844207B6947
